:020000020000FC
:020000002EC010
:0200040038C200
:020008003BC2F9
:02000C003EC2F2
:0200100041C2EB
:0200140018953D
:02001800189539
:02001C0040C2E0
:0200200043C2D9
:0200240018952D
:02002800189529
:02002C00189525
:020030000BC201
:0200340018951D
:02003800189519
:02003C00189515
:02004000189511
:0200440018950D
:02004800189509
:02004C00189505
:02005000189501
:020054001895FD
:020058001895F9
:10005C001895FFEFFDBFF0E1FEBFCCD1E9D1EDD19A
:10040000F894FFEFFABBF7BBF4BB002711272227B4
:1004100033274427FFEFF0936A00F0EFFABFFFECB9
:10042000F9BFF4E0FBBDF2EEFABDF7B7F061F7BF3C
:10043000F0E0FFBDFAE4FEBD789408954BBB38BBF5
:1004400025BBFCCF0895FFCF0395043610F000279D
:100450001395003021F41A3010F0112723952C3316
:1004600010F0222733953C3310F033274395483161
:1004700008F04427189523952C33E1F720E01895D0
:100480002A952F3FB9F72BE3189533953C3391F715
:1004900030E018953A953F3F69F73BE3189543954F
:1004A000483141F740E018954A954F3F19F747E129
:0204B00018959D
:00000001FF
